:020000040800F2
:100000002805002001010008670D0008630D0008A5
:10001000650D000871020008FD0F000800000000D7
:100020000000000000000000000000008B0D000830
:100030007302000800000000890D00088D0D000803
:100040001B0100081B0100081B0100081B01000820
:100050001B0100081B0100081B0100081B01000810
:100060001B0100081B0100081B0100081B01000800
:100070001B0100081B0100081B0100081B010008F0
:100080001B0100081B0100081B0100081B010008E0
:100090001B0100081B0100081B0100081B010008D0
:1000A0001B0100081B0100081B0100081B010008C0
:1000B0001B0100081B0100081B0100081B010008B0
:1000C0001B0100081B0100081B0100081B010008A0
:1000D0001B0100081B0100081B0100081B01000890
:1000E0001B0100081B0100081B010008DFF80CD0F1
:1000F00000F02AF8004800474911000828050020B0
:100100000648804706480047FEE7FEE7FEE7FEE7B1
:10011000FEE7FEE7FEE7FEE7FEE7FEE7E10D00088B
:10012000ED000008D2B201E000F8012B491EFBD21D
:1001300070470022F6E710B513460A4604461946F2
:10014000FFF7F0FF204610BD064C074D06E0E068C3
:1001500040F0010394E8070098471034AC42F6D30E
:10016000FFF7C8FF1C1200083C12000838B50178E0
:100170000446491C084450F8042C0A480068ADF8AD
:1001800000002046091F00F067FF10B100F056FF85
:1001900038BD2078022100F041FF0221684600F0BE
:1001A0005DF838BD002004E010B501780446491C14
:1001B0000844091F50F8042C204600F04DFF18B1E8
:1001C000BDE8104000F03ABF2078082100F026FF7B
:1001D000BDE810400821014800F040B800000020B0
:1001E00038B504460078401CC1B26018091F50F8A9
:1001F000042C204600F030FF10B100F01FFF38BD86
:100200002078012100F00AFF50218DF800100A46E5
:1002100005A000F0F5FF4FF0FF33012269460E48BC
:1002200000F042FD38BD0000424C5F444542554756
:100230005F4D5347203A20426F6F744C6F61646585
:10024000722056657273696F6E203A2025642025EE
:1002500078200A2000000000E80000208AB2014651
:100260004FF0FF33014800F01FBD0000E800002000
:10027000FEE7704770B504790023012C04D00124F7
:1002800004710225457106E0022070BD066851F830
:10029000235035605B1C9342F8D3447100210171F7
:1002A0000068006870BD10B5040002D0607910B11C
:1002B00006E0012010BD00202071204600F004F867
:1002C00001206071002010BD08B500680649884211
:1002D00008D10648416941F040014161406900F0A0
:1002E0004000009008BD00000030024000100240B5
:1002F0002DE9F84FDFF890A100220AF1040B144613
:1003000001274FF00F090BF1040E00BF0B6807FA2D
:1003100004F52B40AB4274D1DFF870C14E68A6EBF8
:100320000C0866452BD00DDC032E34D005DC36B32B
:10033000012E19D0022E2FD11BE0112E16D0122E15
:100340002AD119E0B8F5881F19D006DCB8F5803F2E
:1003500015D0B8F5801F1FD111E0B8F5001F0ED0E1
:10036000B8F5041F18D10AE0CA6815E0CA68121D62
:1003700012E0CA6808320FE0CA680C320CE08A68E2
:100380002AB1012A4FF0080203D0456104E004229B
:1003900002E0056100E00022FF2B01D8064601E0E3
:1003A00000F104064FEA840501D9A5F12005D6F82D
:1003B00000C009FA05F82CEA080C02FA05F54CEA27
:1003C000050CC6F800C04D68ED0057D5304DAE693C
:1003D00046F00106AE61AD6924F0030605F00105A3
:1003E00000952C4D06EB050CDCF80850A6074FEAEB
:1003F000167809FA08F6B543274EB04202D1002616
:1004000010E03BE0254EB04201D101260AE0244E27
:10041000B04201D1022605E0224EB04201D10326AE
:1004200000E0042606FA08F62E43CCF808604D6872
:10043000DAF80060ED03554601D51E4300E09E4307
:100440002E604D68DBF80060AD035D4601D51E43AC
:1004500000E09E432E604D68DEF80060ED027546B8
:1004600001D51E4300E09E432E604D68AD020E4D47
:100470002E6801D51E4300E09E432E60641C102CA4
:10048000FFF444AFBDE8F88F0004014000001110F4
:10049000001002400000014000080140000C014033
:1004A00000100140001401400C0401408068084025
:1004B00000D00120704700000148806870470000AC
:1004C0001000002002488168027811448160704762
:1004D00010000020074810B5016841F010010160CC
:1004E000032000F067F8002000F006F800F024F880
:1004F000002010BD0020024070B50D4D04464FF4A1
:100500007A712878B1FBF0F00A490968B1FBF0F084
:1005100000F0F0FA48B9102C07D200222146501EF4
:1005200000F028F800206C6070BD012070BD000054
:10053000100000201C0000200C4808B5816941F023
:1005400001018161816901F001010091C16941F0FE
:100550008051C161C06900F080500090044841683A
:1005600021F0E06141F00071416008BD00100240DF
:1005700000000140F0B40E4B1B680C46C3F302238D
:10058000C3F10705042D00D90425191D072901D23F
:10059000002300E0DB1E012606FA05F1491E21407A
:1005A00099409E40761E16403143F0BC00F0DCBB03
:1005B0000CED00E0064900F0070208684FF6FF0363
:1005C000184040EA0220034A1043086070470000C8
:1005D0000CED00E00000FA052DE9F047DFF854814A
:1005E00005460E46D8F8000000F00700B0420CD2D5
:1005F000D8F8001021F007013143C8F80010D8F8EE
:10060000000000F00700B0426FD128684A4C810713
:1006100012D5400703D5606840F4E0606060287838
:10062000000703D5606840F4605060606068A968A6
:1006300020F0F000084360602878C00744D0686864
:10064000012816D02168022816D0890700294CDA23
:10065000616821F0030101436160FFF72DFF6968C4
:10066000074641F2883001290ED00229814618D070
:1006700026E021688903E9E78901E7E7FFF71CFF26
:10068000C11B494501D918E081466068C0F381006B
:100690000128F3D118E000BFFFF70EFFC11B494549
:1006A0000BD86068C0F381000228F5D10CE000BFD0
:1006B000FFF702FFC11B494502D90320BDE8F087BF
:1006C000606810F00C0FF3D1D8F80010404601F02C
:1006D0000701B1420BD9016821F0070131430160E4
:1006E000006800F00700B04201D00120E6E728785A
:1006F000400705D56068E96820F4E0600843606061
:100700002878000706D56068296920F4605040EA1F
:10071000C100606000F036F86168084AC1F3031157
:10072000515CC840064908600020FFF7E5FE002044
:10073000C4E700000020024000100240021200083E
:100740001C0000200448054900684968044AC1F3B8
:100750000221515CC84070471C000020001002407C
:10076000121200080448054900684968044AC1F3A8
:10077000C221515CC84070471C000020001002409C
:100780001212000812A185B00FC98DE80F0014A045
:10079000144A006804905168134801F00C03042BBC
:1007A00010D0082B0ED1C1F38343C9031DF80300F9
:1007B0000AD5516804AAC1F34041515C0A4A50432A
:1007C000B0FBF1F005B0704708494843FAE7000074
:1007D00002030405060708090A0B0C0D0E0F101082
:1007E000010200000010024000127A0000093D00E2
:1007F0002DE9F84F04460078B94DC00748D0686825
:10080000C0F38100012807D06868C0F38100022886
:1008100009D16868C00306D52868800338D56068A8
:1008200000286FD034E06068B0F5803F0BD010B185
:10083000B0F5A02F11D0286820F4803028602868F7
:1008400020F4802002E0286840F48030286060684E
:1008500088B1FFF731FE064609E0286840F48020A1
:100860002860F0E7FFF728FE801B642875D8286809
:100870008003F7D50CE0FFF71FFE064605E000BF3A
:10088000FFF71AFE801B6428F0D828688003F7D48D
:100890002078944E80074FF001094FF000083BD5B7
:1008A000686810F00C0F07D06868C0F38100022858
:1008B00009D16868C00306D42868800714D5206968
:1008C00001281FD110E02069B0B1C6F80090FFF7F1
:1008D000F3FD074605E000BFFFF7EEFDC01B022851
:1008E000C4D828688007F7D52868616920F0F80027
:1008F00040EAC10028600FE0C6F80080FFF7DCFD89
:10090000074606E0E9E000BFFFF7D6FDC01B02285E
:1009100023D828688007F7D4207800072CD57248A0
:10092000A169D9B1C0F80090FFF7C6FD074604E001
:10093000FFF7C2FDC01B02280FD8686A8007F7D5F1
:100940006A484FF4FA510068B0FBF1F0009000BF24
:100950000098411E0091FAD20EE080E0C0F80080BD
:10096000FFF7AAFD074604E0FFF7A6FDC01B02281B
:1009700075D8686A8007F7D42078400760D5E869A1
:100980000027C00008D4E86940F08050E861E869B9
:10099000012700F08050009055480168C90513D424
:1009A0000168834641F480710160FFF785FD82464E
:1009B00006E000BFFFF780FDA0EB0A0064284ED8D8
:1009C000DBF80000C005F5D5E06801280AD008B1C1
:1009D000052813D0286A20F001002862286A20F038
:1009E000040002E0286A40F001002862E06841F259
:1009F000883B98B1FFF760FD82460BE0286A40F023
:100A000004002862EEE700BFFFF756FDA0EB0A01E5
:100A100059455AD8286A8007F6D50CE0FFF74CFDF7
:100A2000824605E0FFF748FDA0EB0A0159454CD886
:100A3000286A8007F6D41FB1E86920F08050E86189
:100A4000E06988B36968C1F38101022945D00228B1
:100A5000C6F8608004D0FFF72FFD044638E034E08C
:100A6000FFF72AFD074604E0FFF726FDC01B02281A
:100A70002BD828688001F7D4206AB0F5803F05D1D3
:100A80006868A16820F4003008436860D4E9080170
:100A90000843696821F4741108436860C6F86090DF
:100AA000FFF70AFD044606E015E000BFFFF704FD6E
:100AB000001B022809D828688001F7D50BE000BF89
:100AC000FFF7FAFC001B022802D90320BDE8F88FCB
:100AD00028688001F4D40020F8E70120F6E7000040
:100AE0000010024000004242800442421C000020EC
:100AF0000070004010B5401EB0F1807F01D301208E
:100B000010BD4FF0E02460610F21601700F02CF958
:100B10000020A06107202061002010BD70B50400F6
:100B200004D094F83900002510B106E0012070BD12
:100B300084F83850204600F023F8242084F8390047
:100B40002068C16821F40051C160204600F06CF9B2
:100B50002068016921F4904101612068416921F018
:100B60002A0141612068C16841F40051C160E56318
:100B7000202084F8390084F83A00002070BD00007D
:100B800030B585B000240094019402940394006869
:100B90001449884223D11448C16941F40031C1612C
:100BA000C16901F400310491816941F0040181615E
:100BB00080690E4D00F00400049004200090022093
:100BC00001900320039069462846FFF791FB082017
:100BD000CDE90004694628460294FFF789FB05B079
:100BE00030BD0000004400400010024000080140F9
:100BF0002DE9F843044690F83A00994616460D460A
:100C000020284FD195B18EB194F83800012849D0F1
:100C1000012084F838000027E763222084F83A0096
:100C2000FFF74AFCA6858046E68531E00120BDE855
:100C3000F883E08D401EE085A0684346B0F5805FF4
:100C40004FF000024FF020012046CDF8009004D074
:100C500000F0A2F998B10320E9E700F09DF900281F
:100C6000F9D1206900282068406803D0C1B225F876
:100C7000011B0DE0C0F3080125F8021B08E0206904
:100C800000282068406801D000F07F0005F8010BC3
:100C9000E08D0028CDD1202084F83A0084F8387007
:100CA0000020C4E70220C2E72DE9F843044690F88B
:100CB00039001F4616460D46202850D1A5B19EB1D9
:100CC00094F8380001284AD0012084F838004FF009
:100CD0000008C4F83C80212084F83900FFF7ECFBC1
:100CE000A6848146E68426E00120BDE8F883E08CF6
:100CF000401EE084A0684B46B0F5805F4FF00002D4
:100D00004FF080012046009703D000F045F9E8B984
:100D10000DE000F041F9C8B928882168C0F3080047
:100D20004860206908B16D1C05E0AD1C03E0216836
:100D300015F8010B4860E08C0028D8D14B46002202
:100D400040212046009700F027F908B10320CCE7A6
:100D5000202084F8390084F838800020C5E702207C
:100D6000C3E7FEE7FEE770470907090E002806DA29
:100D700000F00F0000F1E02080F8141D704700F132
:100D8000E02080F80014704770477047FFF79ABB67
:100D900030B58FB028216846FFF7CBF914210AA897
:100DA000FFF7C7F901210804CDE9001000240294DF
:100DB00002250491CDE907504FF4E01009906846F0
:100DC000FFF716FD0F20CDE90A056802CDE90C40BA
:100DD00002210AA80E94FFF7FFFB0FB030BD000000
:100DE0000D48016841F00101016041680B4A114062
:100DF000416001680A4A11400160016821F48021C4
:100E00000160416821F4FE0141604FF41F018160DF
:100E10000449C00308607047001002400000FFF85A
:100E2000FFFFF6FE08ED00E02DE9F0410446006802
:100E30000169E26821F44051114301612169A06810
:100E40000843616908432168CA6841F20C639A4308
:100E50000243CA6020684169A26921F440711143CC
:100E600041614C4920686425322688423CD1FFF715
:100E700079FC00EBC00101EB001061688900B0FB58
:100E8000F1F7FFF76FFC00EBC00101EB00106168A8
:100E9000B0468900B0FBF1F0B0FBF5F06FF018013F
:100EA000484307EB800106EB0110B0FBF5F000F0C2
:100EB000F006FFF757FC00EBC00101EB0010616882
:100EC0008900B0FBF1F0B0FBF5F006EB0016FFF780
:100ED00049FC00EBC00101EB001061688900B0FB28
:100EE000F1F7FFF73FFC3BE0FFF72CFC00EBC00104
:100EF00001EB001061688900B0FBF1F7FFF722FCFD
:100F000000EBC00101EB00106168B0468900B0FB46
:100F1000F1F0B0FBF5F06FF01801484307EB8001EA
:100F200006EB0110B0FBF5F000F0F006FFF70AFC4D
:100F300000EBC00101EB001061688900B0FBF1F02B
:100F4000B0FBF5F006EB0016FFF7FCFB00EBC00171
:100F500001EB001061688900B0FBF1F7FFF7F2FBCD
:100F600000EBC00101EB001061688900B0FBF1F0FB
:100F7000B0FBF5F06FF01801484307EB800108EB78
:100F80000110B0FBF5F0216800F00F0030448860DC
:100F9000BDE8F081003801402DE9F0419846174640
:100FA0000E460446069D1DE0681C1BD02DB1FFF7C0
:100FB00083FAA0EB0800A84214D92068C16821F484
:100FC000D071C1602068416921F001014161202098
:100FD00084F8390084F83A00002084F838000320AF
:100FE000BDE8F0812068006836EA000004D00020E7
:100FF000B842D9D00020F3E70120F9E7FEE702E08C
:1010000008C8121F08C1002AFAD170477047002093
:1010100001E001C1121F002AFBD1704708B5A520CD
:101020008DF800008DF801104FF0FF330222694661
:101030000148FFF739FE08BDE800002008B57F2011
:101040008DF800004FF0FF33012269460148FFF799
:101050002BFE08BDE80000202DE9F0410746FF20E7
:1010600016460D46002405E0395D04220648FFF7C8
:1010700001F9641CAC42F7D3B04202D10020BDE8B4
:10108000F0810120FBE70000080000204FF0FF3551
:101090002B46182216A11D48FFF706FE1B4CC83C24
:1010A0001A48C821C838FFF744F818492B460122CE
:1010B000C8391648FFF79CFD22782B46611C13485F
:1010C000FFF796FD6078512808D052280BD053289E
:1010D000E6D10E48C838FFF749F8E1E70B48C838B1
:1010E000FFF77EF8DCE70948C838FFF75DF8D7E777
:1010F000496E7369646520626F6F746C6F616465BB
:101100007220636F64650D0A00000000E800002093
:101110004FF0FF33102205A10948FFF7C5FD09492B
:10112000086880F308884C68A047FDE7476F207483
:101130006F2075736572206170700D0A00000000E9
:10114000E80000200010000886B0FFF7C3F9FFF7A1
:101150001FFE00241F4801940394816941F020017F
:101160008161816901F020010491816941F00401EC
:1011700081618069184D00F0040004900120009006
:10118000029069462846FFF7B3F8154913480860EE
:101190004FF4E130C1E901040C20CC60C1E9044006
:1011A0008C610846CC61FFF7B9FC0F490D48086017
:1011B0000846FFF778F8631E06220CA10848FFF7DF
:1011C00073FD01212846FFF771F908B1FFF7A0FF71
:1011D000FFF75CFF0010024000080140004400409F
:1011E000E8000020003002400800002073746172A3
:1011F0007420626F6F746C6F616465720A00000026
:101200007047000000000000000001020304060710
:101210000809000000000102030400003C1200085D
:101220000000002020000000FE0F00085C120008F3
:1012300020000020080500000E10000851525354F1
:101240005556575A00000000000000000100000041
:0C125000100000000000000000A24A0492
:04000005080000ED02
:00000001FF
