:020000040800F2
:100000006805002001010008FB1400089F14000887
:10001000F9140008690900089117000800000000A1
:100020000000000000000000000000001F15000894
:100030006B090008000000001D15000821150008CC
:100040001B0100081B0100081B0100081B01000820
:100050001B0100081B0100081B0100081B01000810
:100060001B0100081B0100081B0100081B01000800
:100070001B0100081B0100081B0100081B010008F0
:100080001B0100081B0100081B0100081B010008E0
:100090001B0100081B0100081B0100081B010008D0
:1000A0001B0100081B0100081B0100081B010008C0
:1000B0001B0100081B0100081B0100081B010008B0
:1000C0001B0100081B0100081B0100081B010008A0
:1000D0001B0100081B0100081B0100081B01000890
:1000E0001B0100081B0100081B010008DFF80CD0F1
:1000F00000F040FA00480047092200086805002087
:100100000648804706480047FEE7FEE7FEE7FEE7B1
:10011000FEE7FEE7FEE7FEE7FEE7FEE775150008EF
:10012000ED000008202A04DB203A21FA02F0002129
:10013000704721FA02F3D040C2F1200291400843F7
:1001400019467047D2B201E000F8012B491EFBD2DC
:1001500070470022F6E710B513460A4604461946D2
:10016000FFF7F0FF204610BD421C10F8011B0029CC
:10017000FBD1801A704730B50B4601460020202283
:10018000012409E021FA02F59D4205D303FA02F5A4
:10019000491B04FA02F52844151EA2F10102F1DC04
:1001A00030BD2DE9F05F0546002092469B4688460B
:1001B0000646814640241BE02846414647462246E3
:1001C000FFF7B0FF53465A46C01A914110D311466B
:1001D0001846224600F0E0F92D1A67EB01084F4659
:1001E00022460120002100F0D7F917EB00094E410B
:1001F000201EA4F10104DFDC484631462A4643466E
:10020000BDE8F09F2DE9FE4F804681EA0300C00F54
:100210000C46009021F0004123F00045B8EB0200AD
:10022000A94105D24046214690461C460B4602464F
:1002300023F00040104347D0270DC7F30A00C3F353
:100240000A510290401A019040286BDAC3F3130060
:1002500040F4801B0098924620B10023D2EB030AA1
:1002600063EB0B0B01985946C0F14002504600F079
:1002700093F906460D4650465946019A00F09BF9FF
:1002800010EB08006141002487EA115284EAE77309
:100290001A4340D0009A62B3019A012A4FEA0752EA
:1002A00015DC001B61EB02014FF0004202EA07522D
:1002B000CDE90042001C41F5801132462B4600F08A
:1002C0009BF903B0BDE8F08F40462146F9E7001BDB
:1002D00061EB0201001C41F5801300185B412018FE
:1002E000A2F5001747EB030140EAD570B6196D413E
:1002F00011E06D084FEA360645EAC0754FEA07522D
:10030000001B61EB0201001C41F5801149084FEA16
:1003100030000019514132462B4603B0BDE8F04F82
:1003200000F05BB90098012240000023D0EB0202EC
:1003300063EBE073009821464FEAE074B8EB0000ED
:1003400061EB0401E9E783F000435BE781F00041E2
:1003500058E72DE9FE4F81EA030404F0004421F040
:10036000004100944FF0000B23F0004350EA0104D9
:100370005ED052EA03045BD0C3F30A54C1F30A55BA
:100380002C44A4F2F3340194A0FB0254C1F31301F2
:1003900041F48011C3F3130343F4801301FB0244BF
:1003A00000FB034E840A970A44EA815447EA8357C4
:1003B000A4FB076802958D0A05FB07854FEA932C7D
:1003C00004FB0C542705029D4FEA065847EA1637EE
:1003D000B5EB08056EEB070C870E920E47EA811706
:1003E00042EA8312A7FB0201B6EB0B0164EB0004A7
:1003F0002B0D43EA0C335E1844EB1C50DA46514691
:10040000E7FB0201C5F313044FEA0B3343EA14532D
:100410004FEA0432019C43EA0603A4F10C0402945F
:10042000009CCDE900B400F0E7F803B0BDE8F08F20
:1004300000200146F9E72DE9F04D81EA030404F0BC
:10044000004B21F0004514464FF0000A23F0004114
:1004500050EA050220D054EA01021DD0C5F30A5724
:100460000246C5F31303C1F31300C1F30A5640F467
:10047000801543F48013A7EB0608101BD64608F23C
:10048000FD3873EB050002D308F1010801E0921872
:100490005B41B8F1000F03DA00200146BDE8F08DA2
:1004A00000204FF48011064684460EE0171B73EBC4
:1004B000050705D3121B63EB050306434CEA010C49
:1004C00049084FEA300092185B4150EA0107EDD12C
:1004D00052EA030012D082EA040083EA05010843CD
:1004E00005D0101BAB4106D20122002306E00022FA
:1004F0004FF0004302E06FF0010253101AEB0600C8
:100500004CEB085110EB0A0041EB0B01BDE8F04D3C
:1005100000F063B8C1F30A52C1F3130140F2FF3394
:1005200041F480119A4202DA00200146704740F2FD
:1005300033439A42A2F2334202DC5242FFF7F2BD49
:1005400000F02AB830B5041E71F1000404DB4FF04E
:100550000044404264EB0101141E73F1000405DB0A
:100560001C464FF00043524263EB0403994208BF1C
:10057000904230BD064C074D06E0E06840F00103B4
:1005800094E8070098471034AC42F6D3FFF7B2FD69
:10059000F022000810230008202A04DB203A00FA89
:1005A00002F1002070479140C2F1200320FA03F3CA
:1005B000194390407047202A06DBCB17203A41FAB6
:1005C00002F043EAE07306E041FA02F3D040C2F1E0
:1005D0002002914008431946704710B5141E73F16C
:1005E000000408DA401C41F1000192185B411A43F3
:1005F00001D120F0010010BD2DE9F04D92469B463F
:1006000011B1B1FA81F202E0B0FA80F220329046E4
:10061000FFF7C2FF04460F4640EA0A0041EA0B0119
:1006200053465A46084313D0114653EA010019D0E5
:10063000C8F140025046FFF775FD05460E4650468C
:1006400059464246FFF7A8FF084305D0012004E0C1
:1006500020463946BDE8F08D0020054346EAE076A5
:100660002C4337430A986305E40AA0EB08000022F4
:10067000FD0A44EA47540A3002D500200146E9E762
:10068000010510196941DDE9084500196941BDE816
:10069000F04DA2E7F8B5017804464D1C284450F807
:1006A000046C0FA001F000FE19480068ADF80000CE
:1006B0003246291F204601F00BFD28B115A001F09C
:1006C000F3FD01F0F7FCF8BD1FA001F0EDFD20786F
:1006D000022101F0DFFC0221684600F03BF9F8BD81
:1006E000424C5F44454255475F4D5347203A2042B4
:1006F0004C5F68616E646C655F6765744349445F15
:10070000636D642072756E6E696E672E2E2E0A0000
:10071000002004E0424C5F44454255475F4D53473B
:10072000203A20436865636B53756D206661696C80
:1007300065642C2073656E64696E67204E41434B7F
:100740002E2E2E0A00000000424C5F4445425547C1
:100750005F4D5347203A20436865636B53756D20A6
:10076000636F72726563742E2E2E0A0070B5017865
:1007700004464D1C284450F8046C0EA001F094FD72
:100780003246291F204601F0A3FC30B116A001F02B
:100790008BFDBDE8704001F08DBC20A001F084FD10
:1007A0002078082101F076FCBDE87040082124483B
:1007B00000F0D0B8424C5F44454255475F4D534727
:1007C000203A20424C5F68616E646C655F676574B7
:1007D00048656C705F636D642072756E6E696E67DC
:1007E0002E2E2E0A00000000424C5F444542554721
:1007F0005F4D5347203A20436865636B53756D2006
:100800006661696C65642C2073656E64696E67202F
:100810004E41434B2E2E2E0A00000000424C5F44F6
:10082000454255475F4D5347203A20436865636B07
:1008300053756D20636F72726563742E2E2E0A00DD
:1008400000000020F8B504460078401CC5B26019CD
:1008500050F8046C10A001F027FD3246291F2046F5
:1008600001F036FC28B119A001F01EFD01F022FCB8
:10087000F8BD23A001F018FD2078012101F00AFC49
:1008800050218DF800100A4626A001F00DFD082128
:10089000684600F05FF8F8BD424C5F44454255475A
:1008A0005F4D5347203A20424C5F68616E646C652F
:1008B0005F67657456657273696F6E5F636D642000
:1008C00072756E6E696E672E2E2E0A00424C5F4462
:1008D000454255475F4D5347203A20436865636B57
:1008E00053756D206661696C65642C2073656E6458
:1008F000696E67204E41434B2E2E2E0A00000000E9
:10090000424C5F44454255475F4D5347203A204390
:100910006865636B53756D20636F72726563742EC7
:100920002E2E0A00424C5F44454255475F4D5347C7
:10093000203A20426F6F744C6F6164657220566577
:100940007273696F6E203A202564202578200A2072
:10095000000000008AB201464FF0FF33014800F06A
:1009600041BD0000E8000020FEE7704770B5047943
:100970000023012C04D0012404710225457106E0F6
:10098000022070BD066851F8235035605B1C93420D
:10099000F8D34471002101710068006870BD10B582
:1009A000040002D0607910B106E0012010BD0020E3
:1009B0002071204600F004F801206071002010BD75
:1009C00008B500680649884208D10648416941F0E7
:1009D00040014161406900F04000009008BD000006
:1009E00000300240001002402DE9F84FDFF890A1DE
:1009F00000220AF1040B144601274FF00F090BF1F6
:100A0000040E00BF0B6807FA04F52B40AB4274D10B
:100A1000DFF870C14E68A6EB0C0866452BD00DDCE4
:100A2000032E34D005DC36B3012E19D0022E2FD17F
:100A30001BE0112E16D0122E2AD119E0B8F5881F0E
:100A400019D006DCB8F5803F15D0B8F5801F1FD14E
:100A500011E0B8F5001F0ED0B8F5041F18D10AE058
:100A6000CA6815E0CA68121D12E0CA6808320FE0B1
:100A7000CA680C320CE08A682AB1012A4FF00802D9
:100A800003D0456104E0042202E0056100E0002299
:100A9000FF2B01D8064601E000F104064FEA840569
:100AA00001D9A5F12005D6F800C009FA05F82CEA0D
:100AB000080C02FA05F54CEA050CC6F800C04D68B2
:100AC000ED0057D5304DAE6946F00106AE61AD6917
:100AD00024F0030605F0010500952C4D06EB050CEE
:100AE000DCF80850A6074FEA167809FA08F6B5436D
:100AF000274EB04202D1002610E03BE0254EB04226
:100B000001D101260AE0244EB04201D1022605E0BF
:100B1000224EB04201D1032600E0042606FA08F670
:100B20002E43CCF808604D68DAF80060ED035546B6
:100B300001D51E4300E09E432E604D68DBF8006047
:100B4000AD035D4601D51E4300E09E432E604D6817
:100B5000DEF80060ED02754601D51E4300E09E43BD
:100B60002E604D68AD020E4D2E6801D51E4300E08B
:100B70009E432E60641C102CFFF444AFBDE8F88F38
:100B8000000401400000111000100240000001406C
:100B900000080140000C0140001001400014014019
:100BA0000C0401408068084000D00120704700001C
:100BB00001488068704700001000002002488168EA
:100BC000027811448160704710000020074810B57A
:100BD000016841F010010160032000F067F8002077
:100BE00000F006F800F024F8002010BD00200240BC
:100BF00070B50D4D04464FF47A712878B1FBF0F0D2
:100C00000A490968B1FBF0F000F0F0FA48B9102C7D
:100C100007D200222146501E00F028F800206C6008
:100C200070BD012070BD0000100000201C000020DD
:100C30000C4808B5816941F001018161816901F0C9
:100C400001010091C16941F08051C161C06900F0AA
:100C5000805000900448416821F0E06141F000714B
:100C6000416008BD0010024000000140F0B40E4B8E
:100C70001B680C46C3F30223C3F10705042D00D9FA
:100C80000425191D072901D2002300E0DB1E0126DF
:100C900006FA05F1491E214099409E40761E1640F5
:100CA0003143F0BC00F02ABC0CED00E0064900F036
:100CB000070208684FF6FF03184040EA0220034A83
:100CC00010430860704700000CED00E00000FA05DA
:100CD0002DE9F047DFF8548105460E46D8F80000AC
:100CE00000F00700B0420CD2D8F8001021F0070144
:100CF0003143C8F80010D8F8000000F00700B042F7
:100D00006FD128684A4C810712D5400703D5606827
:100D100040F4E06060602878000703D5606840F424
:100D2000605060606068A96820F0F000084360606F
:100D30002878C00744D06868012816D021680228A6
:100D400016D0890700294CDA616821F003010143BC
:100D50006160FFF72DFF6968074641F2883001297D
:100D60000ED00229814618D026E021688903E9E7E0
:100D70008901E7E7FFF71CFFC11B494501D918E0CE
:100D800081466068C0F381000128F3D118E000BFFC
:100D9000FFF70EFFC11B49450BD86068C0F3810007
:100DA0000228F5D10CE000BFFFF702FFC11B494547
:100DB00002D90320BDE8F087606810F00C0FF3D172
:100DC000D8F80010404601F00701B1420BD9016884
:100DD00021F0070131430160006800F00700B042D4
:100DE00001D00120E6E72878400705D56068E9686A
:100DF00020F4E060084360602878000706D560684A
:100E0000296920F4605040EAC100606000F036F8C3
:100E10006168084AC1F30311515CC8400649086083
:100E20000020FFF7E5FE0020C4E70000002002409C
:100E300000100240D82200081C0000200448054988
:100E400000684968044AC1F30221515CC8407047F8
:100E50001C00002000100240E82200080448054958
:100E600000684968044AC1F3C221515CC840704718
:100E70001C00002000100240E822000812A185B0EA
:100E80000FC98DE80F0014A0144A0068049051683F
:100E9000134801F00C03042B10D0082B0ED1C1F322
:100EA0008343C9031DF803000AD5516804AAC1F39E
:100EB0004041515C0A4A5043B0FBF1F005B0704725
:100EC00008494843FAE70000020304050607080939
:100ED0000A0B0C0D0E0F1010010200000010024052
:100EE00000127A0000093D002DE9F84F0446007811
:100EF000B94DC00748D06868C0F38100012807D009
:100F00006868C0F38100022809D16868C00306D56B
:100F10002868800338D5606800286FD034E06068A6
:100F2000B0F5803F0BD010B1B0F5A02F11D02868DC
:100F300020F480302860286820F4802002E02868AF
:100F400040F480302860606888B1FFF731FE0646C3
:100F500009E0286840F480202860F0E7FFF728FEC9
:100F6000801B642875D828688003F7D50CE0FFF74C
:100F70001FFE064605E000BFFFF71AFE801B64282F
:100F8000F0D828688003F7D42078944E80074FF07B
:100F900001094FF000083BD5686810F00C0F07D02E
:100FA0006868C0F38100022809D16868C00306D4CC
:100FB0002868800714D5206901281FD110E0206916
:100FC000B0B1C6F80090FFF7F3FD074605E000BF9B
:100FD000FFF7EEFDC01B0228C4D828688007F7D5AC
:100FE0002868616920F0F80040EAC10028600FE03D
:100FF000C6F80080FFF7DCFD074606E0E9E000BF29
:10100000FFF7D6FDC01B022823D828688007F7D435
:10101000207800072CD57248A169D9B1C0F800909A
:10102000FFF7C6FD074604E0FFF7C2FDC01B02281C
:101030000FD8686A8007F7D56A484FF4FA510068FC
:10104000B0FBF1F0009000BF0098411E0091FAD271
:101050000EE080E0C0F80080FFF7AAFD074604E03C
:10106000FFF7A6FDC01B022875D8686A8007F7D471
:101070002078400760D5E8690027C00008D4E869F7
:1010800040F08050E861E869012700F0805000904E
:1010900055480168C90513D40168834641F480713D
:1010A0000160FFF785FD824606E000BFFFF780FD87
:1010B000A0EB0A0064284ED8DBF80000C005F5D587
:1010C000E06801280AD008B1052813D0286A20F06A
:1010D00001002862286A20F0040002E0286A40F03B
:1010E00001002862E06841F2883B98B1FFF760FD9B
:1010F00082460BE0286A40F004002862EEE700BF59
:10110000FFF756FDA0EB0A0159455AD8286A800717
:10111000F6D50CE0FFF74CFD824605E0FFF748FDF1
:10112000A0EB0A0159454CD8286A8007F6D41FB1B4
:10113000E86920F08050E861E06988B36968C1F32C
:101140008101022945D00228C6F8608004D0FFF74B
:101150002FFD044638E034E0FFF72AFD074604E09F
:10116000FFF726FDC01B02282BD828688001F7D482
:10117000206AB0F5803F05D16868A16820F400308E
:1011800008436860D4E908010843696821F47411D0
:1011900008436860C6F86090FFF70AFD044606E061
:1011A00015E000BFFFF704FD001B022809D82868DE
:1011B0008001F7D50BE000BFFFF7FAFC001B022807
:1011C00002D90320BDE8F88F28688001F4D40020FC
:1011D000F8E70120F6E7000000100240000042425C
:1011E000800442421C0000200070004010B5401EE8
:1011F000B0F1807F01D3012010BD4FF0E024606189
:101200000F21601700F07AF90020A061072020610B
:10121000002010BD70B5040004D094F839000025FA
:1012200010B106E0012070BD84F83850204600F06F
:1012300023F8242084F839002068C16821F4005183
:10124000C160204600F0BAF92068016921F490419C
:1012500001612068416921F02A0141612068C1686B
:1012600041F40051C160E563202084F8390084F81E
:101270003A00002070BD000030B585B00024009415
:10128000019402940394244D03682448022103220C
:10129000AB421AD1C36943F40033C361C36903F499
:1012A00000330493836943F00403836180691C4D18
:1012B00000F0040004900420CDE900010392694687
:1012C0002846FFF791FB08201CE0164DAB4220D1C9
:1012D000C36943F48023C361C36903F48023049387
:1012E000836943F0080383618069039200F008007A
:1012F00004902815CDE900010B4D69462846FFF7FB
:1013000073FBE814CDE90004694628460294FFF710
:101310006BFB05B030BD00000044004000100240EF
:101320000008014000480040000C01402DE9F8434E
:10133000044690F83A00994616460D4620284FD1AB
:1013400095B18EB194F83800012849D0012084F875
:1013500038000027E763222084F83A00FFF728FCD2
:10136000A6858046E68531E00120BDE8F883E08D62
:10137000401EE085A0684346B0F5805F4FF0000254
:101380004FF020012046CDF8009004D000F0CEF9B7
:1013900098B10320E9E700F0C9F90028F9D12069E4
:1013A00000282068406803D0C1B225F8011B0DE079
:1013B000C0F3080125F8021B08E020690028206816
:1013C000406801D000F07F0005F8010BE08D002897
:1013D000CDD1202084F83A0084F838700020C4E78A
:1013E0000220C2E72DE9F843044690F839001F4671
:1013F00016460D46202850D1A5B19EB194F838006C
:1014000001284AD0012084F838004FF00008C4F8C1
:101410003C80212084F83900FFF7CAFBA68481466E
:10142000E68426E00120BDE8F883E08C401EE084DD
:10143000A0684B46B0F5805F4FF000024FF080018E
:101440002046009703D000F071F9E8B90DE000F0F4
:101450006DF9C8B928882168C0F308004860206980
:1014600008B16D1C05E0AD1C03E0216815F8010B07
:101470004860E08C0028D8D14B460022402120460D
:10148000009700F053F908B10320CCE7202084F83E
:10149000390084F838800020C5E70220C3E7FEE762
:1014A00000B585B00020019003901148816941F09A
:1014B00020018161816901F020010491816941F07D
:1014C00004018161816901F004010491816941F0A5
:1014D000080181618069694600F0080004900120DC
:1014E000009002900348FFF77FFA05B000BD0000AE
:1014F0000010024000080140FEE770470907090E8E
:10150000002806DA00F00F0000F1E02080F8141D3A
:10151000704700F1E02080F8001470477047704772
:10152000FFF74CBB30B58FB028216846FEF711FE9F
:1015300014210AA8FEF70DFE01210804CDE90010D0
:101540000024029402250491CDE907504FF4E010E5
:1015500009906846FFF7C8FC0F20CDE90A0568022C
:10156000CDE90C4002210AA80E94FFF7B1FB0FB0A1
:1015700030BD00000D48016841F001010160416883
:101580000B4A1140416001680A4A1140016001683C
:1015900021F480210160416821F4FE0141604FF493
:1015A0001F0181600449C0030860704700100240B9
:1015B0000000FFF8FFFFF6FE08ED00E02DE9F04126
:1015C000044600680169E26821F440511143016159
:1015D0002169A0680843616908432168CA6841F22B
:1015E0000C639A430243CA6020684169A26921F4EE
:1015F0004071114341614C4920686425322688427C
:101600003CD1FFF72BFC00EBC00101EB001061683F
:101610008900B0FBF1F7FFF721FC00EBC00101EB03
:1016200000106168B0468900B0FBF1F0B0FBF5F046
:101630006FF01801484307EB800106EB0110B0FB87
:10164000F5F000F0F006FFF709FC00EBC00101EB3C
:10165000001061688900B0FBF1F0B0FBF5F006EB1B
:101660000016FFF7FBFB00EBC00101EB0010616807
:101670008900B0FBF1F7FFF7F1FB3BE0FFF7DEFB82
:1016800000EBC00101EB001061688900B0FBF1F7CD
:10169000FFF7D4FB00EBC00101EB00106168B0461E
:1016A0008900B0FBF1F0B0FBF5F06FF01801484392
:1016B00007EB800106EB0110B0FBF5F000F0F0063F
:1016C000FFF7BCFB00EBC00101EB00106168890073
:1016D000B0FBF1F0B0FBF5F006EB0016FFF7AEFB48
:1016E00000EBC00101EB001061688900B0FBF1F76D
:1016F000FFF7A4FB00EBC00101EB0010616889005B
:10170000B0FBF1F0B0FBF5F06FF01801484307EBC8
:10171000800108EB0110B0FBF5F0216800F00F002C
:1017200030448860BDE8F081003801402DE9F04187
:10173000984617460E460446069D1DE0681C1BD0C1
:101740002DB1FFF735FAA0EB0800A84214D92068A4
:10175000C16821F4D071C1602068416921F00101A4
:101760004161202084F8390084F83A00002084F890
:1017700038000320BDE8F0812068006836EA0000E8
:1017800004D00020B842D9D00020F3E70120F9E7C7
:10179000FEE7000037B514460846064B6A46214668
:1017A00000F0DCF804466946002000F06EFC20469C
:1017B0003EBD00008B20000802E008C8121F08C1CF
:1017C000002AFAD170477047002001E001C1121FC2
:1017D000002AFBD1704700002DE9FF5F82B0002195
:1017E000DDE90430020DDDF840B0034318D044F6C3
:1017F0001050A2F2FF3242431514119801281FD055
:10180000A5EB0B00401C5FEA000A4FF000064E4FAC
:10181000DFF83891B046504615D5CAF1000413E000
:10182000119801244AA3012801D16FEA0B01029803
:10183000119AC0E90031C0E9024206B0BDE8F09F4C
:10184000CBF10000DFE704460021404A491842EB93
:101850000450CDE9001012E0E00707D032463B46C5
:1018600040464946FEF775FD8046894632463B466E
:1018700010461946FEF76DFD06460F466410002C13
:10188000EAD1DDE90401DDE90023BAF1000F06DA4F
:10189000FEF75FFD42464B46FEF75BFD05E0FEF7B7
:1018A000CAFD42464B46FEF7C6FD04460E460022E0
:1018B000284BFEF747FE03D84FF0FF30014607E004
:1018C0000022254B20463146FEF79CFCFEF722FE07
:1018D000102409E0002C0ADB0A220023FEF761FC39
:1018E000039B30321A55641E50EA0102F2D1641C87
:1018F000039AC4F111031444119A012A03D001225E
:1019000008430DD10AE0084304D000204FF0110B2A
:10191000119072E7A3EB0B056D1E0DE05B4504DD36
:101920004FF0000205F1010504E003DA4FF0000278
:10193000A5F10105002AECD002981199C0E9023105
:10194000C0E9004579E70000000014400000F03FC6
:10195000300000000000F0430000E03F2DE9FF4FA1
:1019600095B09B468946064600250FE2252877D18B
:1019700000242746F84A0121059400E0044316F8A4
:10198000013F203B01FA03F01042F7D130782A28BA
:1019900011D06FF02F033078A0F13002092A16D849
:1019A000059A44F0020402EB820203EB4202104467
:1019B000761C0590EFE759F8042B0592002A03DA0C
:1019C000504244F40054059044F00204761C3078F0
:1019D0002E2816D116F8010F44F004042A280DD041
:1019E0006FF02F023078A0F13003092B09D807EBF4
:1019F000870302EB4303C718761CF3E759F8047B0F
:101A0000761C30786C280FD006DC4C2817D068285C
:101A10000DD06A2814D104E0742810D07A280FD190
:101A20000DE044F400140AE044F4801401E044F4AE
:101A300040147278824202D104F58014761C761C20
:101A4000307866280BD013DC582877D009DC0028C2
:101A500075D04528F6D04628F4D047281AD19DE104
:101A600018E0632835D0642879D0652812D195E133
:101A7000702873D008DC6728F1D069286FD06E28F1
:101A80000DD06F2806D1B5E073282CD0752875D0FD
:101A9000782874D05A46179990476D1C75E1C4F3A5
:101AA0000250022809D003280DD0D9F800100428CC
:101AB0000DD00D6009F1040967E1D9F80010EA17AB
:101AC000C1E90052F6E7D9F800100D80F2E70D7079
:101AD000F0E719F8041B8DF8001000208DF80100C4
:101AE000EA46012003E059F804AB4FF0FF306107EC
:101AF0004FF0000102D40DE008F101018846B9421F
:101B00000FDA8045F8DB1AF808100029F4D108E054
:101B100008F1010188468142FADB1AF80810002911
:101B2000F6D105985B46A0EB080721463846179A80
:101B300000F094FA284400EB080507E04DE029E1A5
:101B40000DE01AF8010B5A4617999047B8F10108B1
:101B5000F7D25B4621463846179A13E142E00A2243
:101B60000092C4F302524FF0000A022A08D059F83A
:101B700004CB032A4FEAEC710AD00DE029E02AE0F9
:101B800009F1070121F00702F2E802C1914609E0DC
:101B90000FFA8CFC4FEAEC71042A03D14FFA8CFC4B
:101BA0004FEAEC71002907DA0A460021DCF1000C4B
:101BB00061EB02012D2202E0220504D52B228DF8D3
:101BC0000420012203E0E20701D02022F7E790463B
:101BD00059E00A2102E010220DE010214FF0000A26
:101BE00000910BE010224FF0000A44F00404082793
:101BF000009203E008224FF0000A0092C4F3025260
:101C0000022A05D059F804CB0021032A08D009E0A4
:101C100009F1070121F00702F2E802C1914605E04F
:101C20001FFA8CFC042A01D10CF0FF0C4FF00008C5
:101C3000220728D5702806D0009B83F0100353EAB2
:101C40000A0305D00EE040228DF80420012208E0AE
:101C50005CEA010206D030228DF804208DF80500E0
:101C600002229046009B83F0080353EA0A030AD13C
:101C70005CEA010201D1620705D530228DF804200B
:101C80004FF001087F1E582804D034A003900EA8FE
:101C900002900DE036A0F9E753466046009AFEF741
:101CA00080FA84460398825C0298401E029002707B
:101CB0005CEA0100F0D1029806A9081A00F1200A96
:101CC000600702D524F4803400E00127574502DD87
:101CD000A7EB0A0000E0002000EB0A010090059845
:101CE0004144401A0590E00306D45B462146179A0A
:101CF000059800F0B3F90544002706E001A85A460C
:101D0000C05D179990476D1C7F1C4745F6DBE003CB
:101D10000CD55B462146179A059800F09FF90544BB
:101D200004E030205A46179990476D1C0099481ED0
:101D300000900029F5DC08E0029802995A460078E4
:101D4000491C0291179990476D1CBAF10001AAF144
:101D5000010AF1DC65E1000009280100303132336D
:101D600034353637383961626364656600000000D7
:101D700030313233343536373839414243444546C1
:101D80000000000000F058F90544761C3078002867
:101D90007FF4ECAD19B02846BDE8F08F620700D49F
:101DA000062709F1070222F0070CFCE80223E146AE
:101DB00003F000485FEA080C02D00FF2702C0DE02F
:101DC0005FEA045C02D50FF2682C07E05FEAC47C8E
:101DD00002D00FF2602C01E0AFF2700C4FF0FF3830
:101DE00023F00043CDF850C065280CD006DC452810
:101DF00009D046281DD047283DD13DE0662818D09F
:101E000067287ED138E00021112F01DB112000E08E
:101E1000781CCDE9000106A90EA8FFF7DDFCDDE97D
:101E20000F010E9A03910021009207F1010A04911B
:101E30004DE04FF000400097CDE9011006A90EA833
:101E4000FFF7CAFCDDE90F0203920E9B11990022F5
:101E5000DDF80CA00093049211B9791C00EB010A83
:101E6000B7EB0A0004D4C0F1FF3007F1010A049077
:101E7000AAEB0700019044E0012F00DA01270021BE
:101E8000112F01DD112000E03846CDE9000106A93F
:101E90000EA8FFF7A1FCDDE90F010E9A03910021C6
:101EA00004910092BA4621070CD40399514500DAF7
:101EB0008A46BAF1010F05DD009AAAF10101515CD1
:101EC000302908D0B84202DA10F1040F06DA0121F5
:101ED000CDE9011015E0AAF10101E9E7002805DCD0
:101EE000049901440491AAEB000102E0411C514510
:101EF00000DD8A460499401A401C01904FF00040D2
:101F00000290200704D40198504501DBCDF80480ED
:101F100000208DF84F0002980DF14F07B0F1004FEF
:101F200025D02B200E9002984FF0020800280CDAE2
:101F3000404202902D200E9007E00A210298FEF701
:101F40001AF93031029007F8011DB8F10001A8F12B
:101F50000108F2DC02980028EFD1791E0E98087073
:101F6000307800F0200040F0450007F8020D12A87C
:101F7000C01B00F107081498007800B1012000EBA5
:101F80000A01019801EBE07105984144401A401E96
:101F90000590E00306D45B462146179A059800F0A9
:101FA0005DF805441498007818B15A46179990477F
:101FB0006D1CE00324D55B462146179A059800F076
:101FC0004DF805441CE00498002807DBDDE9030117
:101FD000884203DD0098405C179901E01799302092
:101FE0005A469047049805F10105401C0490019859
:101FF000401E019004D12E205A46179990476D1C1F
:10200000BAF10001AAF1010ADDDC05E017F8010BC5
:102010005A46179990476D1CB8F10001A8F10108C4
:10202000F4DC5B462146179A0598ABE62D000000CC
:102030002B000000200000002DE9F041044600259F
:102040001E461746880404D405E039462020B047D0
:102050006D1C641EF9D52846BDE8F0812DE9F041DC
:10206000044600251E469046C80301D5302700E0EF
:102070002027880404D505E041463846B0476D1C4A
:10208000641EF9D52846BDE8F0810A68531C0B6030
:102090001070704708B5A5208DF800008DF801106C
:1020A0004FF0FF33022269460148FFF79BF908BD54
:1020B000E800002008B57F208DF800004FF0FF33C6
:1020C000012269460148FFF78DF908BDE8000020AC
:1020D0002DE9F0410746FF2016460D46002405E095
:1020E000395D04220648FEF741FC641CAC42F7D37C
:1020F000B04202D10020BDE8F0810120FBE70000E2
:10210000080000204FF0FF352B46182218A11F4869
:10211000FFF768F91D4CC83C1C48C821C838FEF7B9
:1021200018F81A492B460122C8391848FFF7FEF85B
:1021300022782B46611C1548FFF7F8F86078512883
:1021400007D052280AD053280DD011A000F0ACF8C7
:10215000E2E70E48C838FEF775FBDDE70B48C838E4
:10216000FEF704FBD8E70948C838FEF793FAD3E72F
:10217000496E7369646520626F6F746C6F6164652A
:102180007220636F64650D0A00000000E800002003
:10219000424C5F44454255475F4D53473A20494EB4
:1021A00056414C494420434F4D4D414E4420434FEE
:1021B00044452052454345495645442046524F4DDB
:1021C0002054484520484F53540D0A004FF0FF3328
:1021D000102206A10A48FFF705F90A48006880F3B3
:1021E00008880848001D0468A047FDE7476F207471
:1021F0006F2075736572206170700D0A0000000019
:10220000E8000020001C0008FEF7E0FCFFF78AF958
:10221000FFF746F91A4819494FF4E13500240160E7
:10222000C0E901540C26C460C0E904468461C4615D
:10223000FEF7F0FF1449134808600846FEF7AFFBAD
:102240000F48124940300160C0E90154C460C0E940
:1022500004468461C461FEF7DDFF0948631E102255
:102260000BA14030FFF7BEF801210E48FEF79AFCA3
:1022700008B1FFF7ABFFFFF745FF00000044004047
:10228000E800002000300240080000200048004024
:10229000737461727420626F6F746C6F61646572C5
:1022A0000A000000000801400FB400B595B017AA5D
:1022B00068461699FFF76EFA6846FDF755FF82B239
:1022C0004FF0FF3369460348FFF78CF815B05DF80F
:1022D00014FB0000280100200000000000000000A6
:1022E00001020304060708090000000001020304BC
:1022F000102300080000002020000000B81700088C
:10230000302300082000002048050000C8170008FE
:10231000515253545556575A000000000000000017
:1023200001000000100000000000000000A24A04AC
:04000005080000ED02
:00000001FF
